:020000040800F2
:1020000000280020612300088D2200088F2200088C
:102010009122000893220008952200080000000089
:1020200000000000000000000000000097220008EF
:1020300099220008000000009B2200089D22000851
:10204000A9230008A9230008A9230008A923000840
:10205000A9230008A9230008A9230008A923000830
:10206000A9230008A9230008A9230008A923000820
:10207000A9230008A9230008A9230008A923000810
:10208000A9230008A9230008A9230008A923000800
:10209000A9230008A9230008A9230008A9230008F0
:1020A000A9230008A9230008A9230008A9230008E0
:1020B000A1220008A923000800000000A9230008AD
:1020C000A92300080000000000000000A923000868
:1020D00000000000A9230008A92300080000000058
:1020E000A9230008A9230008A92300080000000074
:1020F00000000000000000000000000000000000E0
:0C21000000000000000000005FF808F183
:10210C0010B5054C237833B9044B13B10448AFF325
:10211C0000800123237010BD0C040020000000007F
:10212C00102F000808B5034B1BB103490348AFF34C
:10213C00008008BD0000000010040020102F0008D3
:10214C000A4B82B09A6942F020029A619A6902F0B5
:10215C0020020092009A9A6942F004029A619B69EB
:10216C0003F004030193019B02B07047001002407E
:10217C0008B500230748084AC0E9002340F6FF735E
:10218C00836000F0BBF918B1BDE8084000F053B80B
:10219C0008BD00BF280400200030004010B590B0EE
:1021AC001022002108A800F0A5FE1422002101A88D
:1021BC0000F0A0FE02244FF480330922CDE90D4338
:1021CC00CDE9062301224FF4E01306A80A920C92E3
:1021DC000F9300F0C1F908B172B6FEE70F23CDE9F9
:1021EC0001344FF480630390CDE90430214601A8FB
:1021FC0000F074FB08B172B6FEE710B010BD000021
:10220C0008B500F0F1F8FFF7C9FFFFF799FF00F0F0
:10221C004FF8FFF7ADFF034800F0FCFB00F004FEA5
:10222C00FCE700BF340400200368B3F1804F01D1F8
:10223C0000F0F4BD704772B6FEE700000E4B82B0A2
:10224C009A6942F001029A619A6902F001020092C5
:10225C00009ADA6942F08052DA61DB69074A03F0CE
:10226C0080530193019B536823F0E06343F00073A8
:10227C00536002B0704700BF0010024000000140E4
:10228C00FEE7FEE7FEE7FEE7FEE7704770477047A4
:10229C0000F0BCB8014800F0E7BB00BF34040020DC
:1022AC00014B024A9A60704700ED00E000200008E4
:1022BC007FB51022002102A800F01CFE47224FF02F
:1022CC00804114480023C0E9001240F2E732CDE906
:1022DC000033C0E9032383608023836100F098FC02
:1022EC0008B1FFF7A8FF4FF480530A4802A90293E4
:1022FC0000F0C4FC08B1FFF79EFF002369460548B7
:10230C00CDE9003300F056FD08B1FFF794FF07B09C
:10231C005DF804FB34040020036807B5B3F1804F6B
:10232C0015D103F50433DA691C2042F00102DA619D
:10233C000022DB69114603F001030193019B00F0BD
:10234C0089F81C2003B05DF804EB00F0B5B803B0BD
:10235C005DF804FBFFF7A4FF0B480C490C4A002363
:10236C0002E0D458C4500433C4188C42F9D3094A3F
:10237C00094C002301E013600432A242FBD300F0AD
:10238C0095FDFFF73DFF7047000400200C04002072
:10239C007C2F00080C04002084040020FEE70000C1
:1023AC0038B50E4B054618784FF47A73B3FBF0F33F
:1023BC000B4A1068B0FBF3F000F08CF8044658B9E7
:1023CC000F2D09D8024629464FF0FF3000F042F895
:1023DC002046044B1D6038BD0120FCE7040400209E
:1023EC000004002008040020074A08B513680320E5
:1023FC0043F01003136000F01BF80F20FFF7D0FF21
:10240C00FFF71CFF002008BD00200240034A044BCC
:10241C0011681B780B441360704700BF7C040020CC
:10242C0004040020014B1868704700BF7C04002096
:10243C0007490302CA6803F4E06322F4E062120461
:10244C00120C134343F0BF6343F40033CB6070476B
:10245C0000ED00E0164B30B5DC68C4F30224C4F187
:10246C000703251D042B28BF0423062D4FF0FF3531
:10247C0098BF002405FA03F388BF033C21EA030349
:10248C00A34005FA04F422EA0402002843EA0203FA
:10249C00ACBF00F16040074A4FEA0313DBB2ABBF9D
:1024AC0000F5614000F00F0080F80033135430BD8C
:1024BC0000ED00E014ED00E0002808DB01234209E8
:1024CC0000F01F0003FA00F0014B43F822007047A4
:1024DC0000E100E00138B0F1807F0BD24FF0E02337
:1024EC00F021054A586182F82310002007229861D8
:1024FC001A6170470120704700ED00E038B50446C2
:10250C0008B34CF6CC4203681A6045F255521A6077
:10251C0042685A6082689A60FFF784FF0546226819
:10252C00D06810F0030003D14AF6AA23136038BD1B
:10253C00FFF778FF401B2728F1D92368DB689B073E
:10254C00EDD00320F3E70120F1E74AF6AA22036855
:10255C0000201A60704700002DE9F341054638B39E
:10256C000368DB0710D42B689F075ED42B68190710
:10257C0000F195802B685A0700F1C180E8690028AA
:10258C0040F02C81002029E0904C636803F00C0390
:10259C00042B07D0636803F00C03082B0AD1636883
:1025AC00DE0307D523689C03DDD56B68002BDAD1DD
:1025BC00012013E06B68B3F5803F12D1236843F41C
:1025CC0080332360FFF72EFF064623689803CAD496
:1025DC00FFF728FF801B6428F7D9032002B0BDE861
:1025EC00F0819BB9236823F480332360236823F4A0
:1025FC0080232360FFF716FF064623689903B2D5A4
:10260C00FFF710FF801B6428F7D9E6E7B3F5A02F7E
:10261C00236803D143F480232360CFE723F4803372
:10262C002360236823F48023CBE7684C636813F0A2
:10263C000C0F07D0636803F00C03082B10D16368F0
:10264C00DA030DD423689B0702D52B69012BAFD17C
:10265C0023686A6923F0F80343EAC203236085E721
:10266C002A695B4B6AB101221A60FFF7DBFE064652
:10267C0023689F07ECD4FFF7D5FE801B0228F7D9FF
:10268C00ABE71A60FFF7CEFE0646236898077FF586
:10269C006DAFFFF7C7FE801B0228F6D99DE7AA692C
:1026AC004A4E4B4BE2B10122C3F88024FFF7BAFE2D
:1026BC000446736A9B070DD54FF4FA52454B1B68C1
:1026CC00B3FBF2F3019300BF019B5A1E0192002B46
:1026DC00F9D14FE7FFF7A6FE001B0228E9D97CE7EA
:1026EC00C3F88024FFF79EFE0446736A9F077FF5AC
:1026FC0041AFFFF797FE001B0228F6D96DE7334C6C
:10270C00E369D80024D40127E36943F08053E361E3
:10271C00E36903F080530093009B2F4E3368D90577
:10272C0018D5EB68012B26D1236A43F001032362F1
:10273C00FFF778FE41F288380646236A9B073FD59F
:10274C00002F3FF41BAFE36923F08053E36115E7DF
:10275C000027E2E7336843F480733360FFF762FECF
:10276C0080463368DA05DCD4FFF75CFEA0EB08008A
:10277C006428F6D931E7ABB9236A41F2883823F0E3
:10278C0001032362236A23F004032362FFF74AFE4A
:10279C000646236A9807D3D5FFF744FE801B4045B5
:1027AC00F7D91AE7052B236A03D143F004032362FC
:1027BC00BAE723F001032362236A23F00403B6E78C
:1027CC00FFF730FE801B4045B7D906E700100240EA
:1027DC000000424200040020007000402A4C636854
:1027EC0003F00C03082B3ED00022284B02281A665B
:1027FC002CD1FFF717FE06462368990120D42B6ACB
:10280C00B3F5803F05D16268A96822F400320A430F
:10281C006260696A62680B4322F4741213430122EA
:10282C0063601A4B1A66FFF7FDFD054623689A0193
:10283C003FF5A8AEFFF7F6FD401B0228F6D9CCE613
:10284C00FFF7F0FD801B0228D6D9C6E6FFF7EAFD9C
:10285C00054623689B017FF595AEFFF7E3FD401B12
:10286C000228F6D9B9E601283FF4B8AE63682A6AA3
:10287C0003F4803191427FF49BAE6A6A03F47013C7
:10288C0093423FF47FAE93E60010024000004242B8
:10289C000D4A536803F00C01082912D10B48C3F3FD
:1028AC008341DB03405C09D55368094AC3F34043B9
:1028BC005043084AD35CB0FBF3F07047064B5843C7
:1028CC0070470348704700BF00100240382F0008C3
:1028DC0000127A00482F000800093D002DE9F04154
:1028EC000D46044610B90120BDE8F081444A136836
:1028FC0003F007038B4228D321688E0730D4CA0714
:10290C0043D43F4A136803F00703AB4265D82268EF
:10291C003C4D12F0040F6CD1130706D56B6822697D
:10292C0023F4605343EAC2036B60FFF7B1FF6B689B
:10293C00354AC3F30313D35CD840344B1860344B83
:10294C001868FFF72DFD0020CEE7136823F007036E
:10295C000B431360136803F007038B42C3D1CBE71F
:10296C00284B11F0040F1EBF5A6842F4E0625A6003
:10297C00080742BF5A6842F460525A605A68A0680D
:10298C0022F0F00202435A60B9E762681D4E012A38
:10299C0033681AD113F4003FA5D0736841F288381C
:1029AC0023F0030313437360FFF73CFD0746736882
:1029BC00626803F00C03B3EB820FA2D0FFF732FD79
:1029CC00C01B4045F3D903208EE7022A02D113F035
:1029DC00007FE1E713F0020FDEE7136823F0070333
:1029EC002B431360136803F00703AB427FF47BAFF8
:1029FC008DE76B68E16823F4E0630B436B608BE756
:102A0C000020024000100240282F00080004002083
:102A1C000804002090F83D30012B1CD1022380F8D3
:102A2C003D300368DA6842F00102DA600B4A9342E7
:102A3C0006D0B3F1804F03D0A2F59432934204D167
:102A4C009A6802F00702062A03D01A6842F00102C3
:102A5C001A60002070470120704700BF002C014015
:102A6C007047704770477047036810B51A69044681
:102A7C0091070ED5DA6892070BD56FF002021A6136
:102A8C00012202779B699B0777D0FFF7EAFF0023AF
:102A9C00237723681A69500710D5DA6851070DD5CA
:102AAC006FF004021A61022222779B69204613F40C
:102ABC00407F68D0FFF7D5FF0023237723681A697E
:102ACC0012070FD5DA6810070CD56FF008021A61DF
:102ADC0004222277DB69204699075AD0FFF7C1FF01
:102AEC000023237723681A69D20610D5DA68D0063A
:102AFC000DD56FF010021A6108222277DB6920468F
:102B0C0013F4407F4BD0FFF7ACFF002323772368EF
:102B1C001A69D10708D5DA68D20705D56FF001021A
:102B2C0020461A61FFF780FB23681A69100608D546
:102B3C00DA68110605D56FF0800220461A6100F0A4
:102B4C0064F923681A69520608D5DA68500605D567
:102B5C006FF0400220461A61FFF785FF23681A695F
:102B6C00910622D5DA6892061FD56FF02002204616
:102B7C00BDE810401A6100F047B9FFF771FF20461D
:102B8C00FFF770FF83E7FFF76BFF2046FFF76AFF45
:102B9C0092E7FFF765FF2046FFF764FFA0E7FFF71A
:102BAC005FFF2046FFF75EFFAFE710BD164A10B57A
:102BBC009042036805D0B0F1804F02D0134CA04274
:102BCC0010D14C6823F07003904243EA040305D003
:102BDC00B0F1804F02D00D4A904203D1CA6823F461
:102BEC00407313434A6923F08003134303608B68DB
:102BFC00C3620B688362044B984204BF0B69036386
:102C0C000123436110BD00BF002C014000040040B3
:102C1C0010B5044630B390F83D3003F0FF021BB9F9
:102C2C0080F83C20FFF778FB0223206884F83D30C5
:102C3C00211DFFF7BBFF0123002084F8463084F8E8
:102C4C003E3084F83F3084F8403084F8413084F8CA
:102C5C00423084F8433084F8443084F8453084F8AA
:102C6C003D3010BD0120FCE710B584680A4324F404
:102C7C007F4442EA03222243826010BD70B590F873
:102C8C003C300446012B4FF0020300F091800122EE
:102C9C0080F83D3080F83C200068836823F47F4343
:102CAC0023F0770383600B68602B52D033D8402B12
:102CBC0067D016D8202B0DD00AD833F0100109D0CC
:102CCC00012384F83D30002384F83C30104670BD5D
:102CDC00302BF5D1826822F07002134343F00703C6
:102CEC0017E0502BECD14A68CE68016A056A21F0D6
:102CFC000A0125F00105056283690A4323F0F003FC
:102D0C0043EA061383610262836823F0700343F085
:102D1C005703836011E0B3F5805F0ED0B3F5005F0D
:102D2C000DD0702BCCD1CB68D1E90121FFF79CFFE2
:102D3C002268936843F0770393600022C0E7CB6866
:102D4C00D1E90121FFF790FF2268936843F4804397
:102D5C00F2E7036A4D68CE68016A23F0A00321F004
:102D6C0010010162826943EA051322F4704242EABF
:102D7C00063282610362836823F0700343F06703B9
:102D8C00C7E74A68CE68016A056A21F00A0125F096
:102D9C000105056283690A4323F0F00343EA061335
:102DAC0083610262836823F0700343F04703B0E74A
:102DBC001A468BE730B590F83C200346012A4FF0B9
:102DCC0002001ED01A6883F83D0054680D6824F088
:102DDC0070042C43906854600A4CA24206D0B2F1A5
:102DEC00804F03D0A4F59434A24204D1496820F05A
:102DFC008000014391600122002083F83D2083F87C
:102E0C003C0030BD002C014070477047704700F00B
:102E1C0031B8704770477047704700000122014B72
:102E2C001A7070478104002070B50F4A1378012B7B
:102E3C0015D10E4E052533780D4C0133337000231C
:102E4C00137063783178A278013B0B409A4201D120
:102E5C0063689847013D04F10804F2D170BDBDE8E8
:102E6C007040FFF7D9BF00BF810400208004002010
:102E7C004C2F000810B50A4C2378052B0DD10948AE
:102E8C00FFF763FB0023084A23701378322B0EBF25
:102E9C0000230133DBB2137010BD0133F3E700BF25
:102EAC0082040020280400208304002070B5002632
:102EBC000C4D0D4C641BA410A64209D100F022F855
:102ECC0000260A4D0A4C641BA410A64205D170BD05
:102EDC0055F8043B98470136EEE755F8043B984704
:102EEC000136F2E7742F0008742F0008742F0008C5
:102EFC00782F000803460244934200D1704703F830
:102F0C00011BF9E7F8B500BFF8BC08BC9E4670473A
:0C2F1C00F8B500BFF8BC08BC9E4670472A
:102F28000000000000000000010203040607080971
:102F380002030405060708090A0B0C0D0E0F1010F2
:102F48000102000000010000192E00080102000023
:102F58001F2E000802040100212E000803080300A8
:0C2F6800232E0008040807001B2E0008A0
:042F740031210008FF
:042F78000D2100081F
:0C2F7C000024F400010000001000000020
:04000005080023616B
:00000001FF
